:020000040000FA
:060000007BEF27F0120067
:060008006EEF08F012008B
:06102A0001007C4F0000F4
:08103000FC01000003000000B8
:08103800D9CFE6FFE1CFD9FF9B
:10104000FE0EDBCFF3FFDB06F350000904E00000E7
:1010500000000000F5D7E552E7CFD9FF1200D9CF45
:10106000E6FFE1CFD9FFFE0EDBCFF3FFDB06F35047
:10107000000906E00B0EE66EA5EC27F0E552F3D76B
:10108000E552E7CFD9FF1200D9CFE6FFE1CFD9FF74
:10109000FE0EDBCFF3FFDB06F350000906E00C0E7B
:1010A000E66EA5EC27F0E552F3D7E552E7CFD9FF7E
:1010B0001200D9CFE6FFE1CFD9FFFE0EDBCFF3FF61
:1010C000DB06F350000906E00C0EE66E2BEC27F071
:1010D000E552F3D7E552E7CFD9FF1200D8CFE4FFAE
:1010E000E0CFE4FFE46EDACFE4FFE2CFDAFFE9CF4E
:1010F000E4FFEACFE4FFF3CFE4FFF4CFE4FFE652EE
:10110000D9CFE6FFE1CFD9FFE652ED0ECF6ECE6A22
:10111000DF6A2D0EDF5C2BE202019E51DF5C02E3F1
:10112000000E01D0010EE8B0828CE8A0829C9F5195
:10113000DF5C02E3000E01D0010EE8B0828EE8A071
:10114000829EA051DF5C02E3000E01D0010EE8B0E8
:101150008088E8A08098A151DF5C02E3000E01D0F6
:10116000010EE8B0808AE8A0809ADF2AD2D7010178
:10117000FC07000EFD5BFC51FD1108E10201010EB0
:10118000BA6F0101C40EFC6F090EFD6FDF6A080E15
:10119000DF5C4FE2010EDF5206E0DFCFF3FFE846EF
:1011A000FE0BF306FCE181141BE0EA6ADF34FE0B60
:1011B000EA36E96E7E0EE926020EEA22FF0EEE18EE
:1011C00001E1ED500CE0EA6ADF34FE0BEA36E96E2D
:1011D0007E0EE926020EEA22EE2A000EEF220BD046
:1011E000EA6ADF34FE0BEA36E96E7E0EE926020E6D
:1011F000EA22EE6AED6AEA6ADF34FE0BEA36E96E4D
:101200007E0EE926020EEA22EECF26F0EDCF27F081
:10121000EE2A000EEF22080E261801E1275007E102
:10122000DF50EA6A8E0FE96E020EEA22EF2ADF2A09
:10123000AED79E90E552E552E7CFD9FFE552E5CF14
:10124000F4FFE5CFF3FFE5CFEAFFE5CFE9FFE5CF18
:10125000DAFFE550E5CFE0FFE5CFD8FF1000D9CFAA
:10126000E6FFE1CFD9FF0C0EE12613EC0FF0010EE3
:10127000DB6A040EF36E010EDBCFF4FFF350F45C77
:1012800001E3D7D0010EDB50040DF3500309C26E09
:10129000020EDB6ADB50146E156AD890155004E616
:1012A000FF0E145C000E155805E2C2A203D0020E18
:1012B000DB2AF0D7080EC4CFDBFF070EC3CFDBFF5E
:1012C000DBCF16F0080EDBCF17F0050E1702F3CFB9
:1012D00017F01602F3CF16F0F45017262B0E0D6EF2
:1012E0000E6A16C008F017C009F042EC27F008C0DB
:1012F00016F009C017F0050E086E096A070EDBCF5D
:101300000DF0080EDBCF0EF02CEC23F01650065C2F
:10131000146E17500758156E030E14C0DBFF040E31
:1013200015C0DBFF030EDBCF14F0040EDBCF15F08E
:10133000AA0E145E0A0E155A040E1426000E15226B
:101340000A0E0D6E0E6A14C008F015C009F006EC06
:1013500023F008C014F009C015F0030E14C0DBFF21
:10136000040E15C0DBFF030EDBCF14F0040EDBCF41
:1013700015F0D880155004E7E20E145CFF0E1558E6
:101380000DE3030EDBCF16F0040EDBCF17F017349E
:1013900004E216507808000E17540EE2010EEA6AB5
:1013A000DB34FE0BEA36E96EA60EE926020EEA22CF
:1013B0007F0EEE6EED6A3AD0010EEA6ADB34FE0B68
:1013C000EA36E96EA60EE926020EEA22EECF16F004
:1013D000EFCF17F00A0E1702F3CF17F01602F3CF74
:1013E00016F0F4501726030EDB501624146E040E6C
:1013F000DB501720156E0B0E0D6E0E6A14C008F030
:1014000015C009F006EC23F008C014F009C015F06F
:10141000010EEA6ADB34FE0BEA36E96EA60EE92617
:10142000020EEA2214C0EEFF15C0EDFF010EDB2A0A
:1014300020D70201AC51A65DAE6FAD51A759AF6F79
:10144000AC51A85DB06FAD51A959B16FAC51AA5D57
:10145000B26FAD51AB59B36FF60EB46FB5697F0E75
:10146000A61901E1A75103E17F0EAE6FAF6B7F0EAE
:10147000A81901E1A95103E17F0EB06FB16B7F0E96
:10148000AA1901E1AB5103E17F0EB26FB36B7F0E7E
:10149000AC1901E1AD5107E17F0EB26FB36BB06FD4
:1014A000B16BAE6FAF6BDF6A040EDF5C01E380D21D
:1014B000DF50EA6AA20FE96E020EEA22090EEFCFB0
:1014C000DBFF010EE66EDFCFE6FFECEC11F0E5523C
:1014D000E552E96EEA6AE9BEEA68D890E936EA368A
:1014E000A60EE926020EEA220A0EEECFDBFF0B0E55
:1014F000EDCFDBFFDF50EA6AA20FE96E020EEA22AF
:10150000EF5009E1D9500A0FE96EDACFEAFF020E77
:10151000EE5E000EED5A0A0EDBCF14F00B0EDBCFA1
:1015200015F014C0E6FF15C0E6FF020EE66EDFCF31
:10153000E6FFECEC11F0E552E552E552E7CF15F08D
:10154000E552E7CF14F0166E176A16BE17681550ED
:101550001718E8AE02D0173404D01650145C175098
:1015600015582BE2040EE66EDFCFE6FFECEC11F02F
:10157000E552E55200090FE0DF50EA6AA20FE96E7A
:10158000020EEA22EF6ADF50EA6AB60FE96E020E37
:10159000EA22EF6A11D0E66ADFCFE6FFECEC11F049
:1015A000E552E552E66EDF50EA6AA20FE96E020EDE
:1015B000EA22E552E750EF6EC7D0E66ADFCFE6FFDA
:1015C000ECEC11F0E552E552246E256A24BE256844
:1015D00024C0E6FF25C0E6FF030EE66EDFCFE6FF80
:1015E000ECEC11F0E552E552E552E7CF25F0E5527B
:1015F000E7CF24F0206E216A20BE216820C0E6FFDC
:1016000021C0E6FF24C0E6FF25C0E6FF020EE66E1D
:10161000DFCFE6FFECEC11F0E552E552E552E7CF03
:1016200025F0E552E7CF24F0E552E7CF21F0E5526F
:10163000E7CF20F0226E236A22BE23682250205C6E
:101640001E6E235021581F6E1EC0E6FF1FC0E6FF0E
:1016500024C0E6FF25C0E6FF020EE66EDFCFE6FF00
:10166000ECEC11F0E552E552E552E7CF25F0E552FA
:10167000E7CF24F0E552E7CF1FF0E552E7CF1EF0A9
:101680001A6E1B6A1ABE1B680A0EDBCF08F00B0E1F
:10169000DBCF09F01A50085C186E1B500958196E00
:1016A00018C0E6FF19C0E6FF1EC0E6FF1FC0E6FF38
:1016B00024C0E6FF25C0E6FFE66ADFCFE6FFECECDC
:1016C00011F0E552E552E552E7CF25F0E552E7CFBC
:1016D00024F0E552E7CF1FF0E552E7CF1EF0E552C8
:1016E000E7CF19F0E552E7CF18F01C6E1D6A1CBE5B
:1016F0001D68640ED8801C56000E1D5600011C503B
:101700001802F3CF16F0F4CF17F01902F350172692
:101710001D501802F350172616C008F017C009F024
:101720001EC00DF01FC00EF006EC23F0085024245C
:10173000146E09502520156EDF50EA6AA20FE96E7B
:10174000020EEA2214C0EFFF090EDB5011E1DF5058
:10175000EA6AA20FE96E020EEA22EF50000808E2E0
:10176000DF50EA6AB60FE96E020EEA22030EEF6E50
:10177000DF50EA6AB60FE96E020EEA22EF5008E087
:10178000DF50EA6AA20FE96E020EEA22550EEF6EF2
:10179000DF50EA6AA20FE96E020EEA22EF506408F7
:1017A00008E2DF50EA6AA20FE96E020EEA22640E36
:1017B000EF6E050EE66EDFCFE6FFECEC11F0E552C2
:1017C000E552000911E1060EE66EDFCFE6FFECEC14
:1017D00011F0E552E552000907E1DF50EA6AA20F75
:1017E000E96E020EEA22EF6A050EE66EDFCFE6FF33
:1017F000ECEC11F0E552E552000936E0060EE66E1B
:10180000DFCFE6FFECEC11F0E552E55200092CE0E9
:10181000DF50EA6AA20FE96E020EEA22EF50166E5E
:10182000176A2D0E086E096A16C00DF017C00EF06B
:101830002CEC23F006C014F007C015F0640E0D6EFA
:101840000E6A14C008F015C009F042EC27F008C079
:1018500014F009C015F0DF50EA6A9E0FE96E020E1F
:10186000EA2214C0EFFF2BD0DF50EA6AA20FE96E24
:10187000020EEA22EF50166E176A240E086E096AED
:1018800016C00DF017C00EF02CEC23F006C014F0BB
:1018900007C015F0640E0D6E0E6A14C008F015C076
:1018A00009F042EC27F008C014F009C015F0DF5031
:1018B000EA6A9E0FE96E020EEA2214C0EFFFDF50C3
:1018C000EA6AA20FE96E020EEA22EFCF14F0620E6E
:1018D000145C08E3DF50EA6A9E0FE96E020EEA220A
:1018E0002D0EEF6E050EE66EDFCFE6FFECEC11F08D
:1018F000E552E55205080AE0060EE66EDFCFE6FF88
:10190000ECEC11F0E552E552050808E1DF50EA6A17
:101910009E0FE96E020EEA222D0EEF6EDF5021E1DE
:10192000050EE66EE66AECEC11F0E552E5520508AC
:1019300009E0060EE66EE66AECEC11F0E552E552BF
:1019400005080DE1050E146E14C00EF0A2C209F0D8
:1019500097EC27F009500201A225BB6E02D0780E49
:10196000BB6EDF0423E1050EE66E010EE66EECECC5
:1019700011F0E552E55205080AE0060EE66E010E8A
:10198000E66EECEC11F0E552E55205080DE1050EAE
:10199000146E14C00EF0A3C209F097EC27F00950A2
:1019A0000201A325BE6E02D0780EBE6EDF2A7CD562
:1019B000F5DA0201BA5101E12AD2BA6BDF6A040EEC
:1019C000DF5C11E2DF50EA6AB60FE96E020EEA222E
:1019D000EF5007E0DF50EA6AB60FE96E020EEA2226
:1019E000EF06DF2AECD794C296F295C297F292C224
:1019F00098F293C299F290C29AF291C29BF28EC26F
:101A00009CF28FC29DF2DF6A080EDF5C09E2DF50B4
:101A1000EA6A8E0FE96E020EEA22EF6ADF2AF4D735
:101A2000D10EE66E4E0EE66E000EE66E7E0EE66E91
:101A3000010EE66E82EC25F0146E050EE15E145088
:101A4000020EF3CFDBFF010EDB6A040EF36E010E14
:101A5000DBCFF4FFF350F45C30E2010EEA6ADB34D2
:101A6000FE0BEA36E96EA60EE926020EEA22EECF5A
:101A7000E6FFEFCFE6FFCC0EE66E4E0EE66E000EF2
:101A8000E66E020EDB50156A7E0F146E010E1522F3
:101A900014C0E6FF15C0E6FF82EC25F0166E070EB7
:101AA000E15E1650020EDBCFE7FFF350E726020E91
:101AB000E7CFDBFF010EDB2AC8D7DF6A040EDF5C4D
:101AC0002AE2DF50EA6AA20FE96E020EEA22EF5024
:101AD000E66EE66ACC0EE66E4E0EE66E000EE66E22
:101AE000020EDB50156A7E0F146E010E152214C013
:101AF000E6FF15C0E6FF82EC25F0166E070EE15EEC
:101B00001650020EDBCFE7FFF350E726020EE7CFB9
:101B1000DBFFDF2AD3D7DF6A080EDF5C01E3ADD03D
:101B2000DF50010B050FE66EDF50FE0BE842E66E5C
:101B3000ECEC11F0E552E552020830E1DF50EA6AC0
:101B4000960FE96E020EEA22EF503C0DF3CF14F02F
:101B5000F4CF15F014C0E6FF15C0E6FFCC0EE66E1C
:101B60004E0EE66E000EE66E020EDB50176A7E0F1A
:101B7000166E010E172216C0E6FF17C0E6FF82ECB4
:101B800025F0186E070EE15E1850020EDBCFE7FF5E
:101B9000F350E726020EE7CFDBFF6DD0DF50010BDD
:101BA000050FE66EDF50FE0BE842E66EECEC11F03E
:101BB000E552E552040830E1DF50EA6A960FE96E1B
:101BC000020EEA22EF500F0DF3CF14F0F4CF15F010
:101BD00014C0E6FF15C0E6FFCC0EE66E4E0EE66EB4
:101BE000000EE66E020EDB50176A7E0F166E010EB7
:101BF000172216C0E6FF17C0E6FF82EC25F0186E2C
:101C0000070EE15E1850020EDBCFE7FFF350E72628
:101C1000020EE7CFDBFF2FD0DF50EA6A960FE96EA6
:101C2000020EEA22EF501E0DF3CF14F0F4CF15F0A0
:101C300014C0E6FF15C0E6FFCC0EE66E4E0EE66E53
:101C4000000EE66E020EDB50176A7E0F166E010E56
:101C5000172216C0E6FF17C0E6FF82EC25F0186ECB
:101C6000070EE15E1850020EDBCFE7FFF350E726C8
:101C7000020EE7CFDBFFDF2A4FD7C90EE66E4E0E0E
:101C8000E66E000EE66E020EDB50156A7E0F146ED5
:101C9000010E152214C0E6FF15C0E6FF82EC25F008
:101CA000166E050EE15E1650060EDB6A010EDB6A4B
:101CB000040EF36E010EDBCFF4FFF350F45C3FE251
:101CC000010EEA6ADB34FE0BEA36E96EA60EE9265F
:101CD000020EEA227F0EEE1801E1ED5025E1010E21
:101CE000DBCFE6FFE66A10EC27F0E552E55200098B
:101CF0001BE0010EDB50EA6ABB0FE96E020EEA221E
:101D0000EFCF14F0050E145C09E2010EDB50EA6A15
:101D1000BB0FE96E020EEA22EF2A05D0010EF36E28
:101D2000060EF3CFDBFF08D0010EDB50EA6ABB0FD3
:101D3000E96E020EEA22EF6A010EDB2AB9D7DF6AEA
:101D4000080EDF5C4EE2DF50EA6A960FE96E020E83
:101D5000EA22EFCF14F0040E145C3AE2DF50010BDC
:101D6000050FE66EDF50FE0BE842E66E35DBE5520E
:101D7000E552156E020EE76E1518E8AE02D0E73494
:101D800002D0E750155C24E3DF50FE0BE842EA6A1C
:101D9000A20FE96E020EEA22EF50000819E2DF50AE
:101DA000EA6ABF0FE96E020EEA22EFCF14F0050EC9
:101DB000145C08E2DF50EA6ABF0FE96E020EEA2205
:101DC000EF2A05D0010EF36E060EF3CFDBFF07D02E
:101DD000DF50EA6ABF0FE96E020EEA22EF6ADF2ADD
:101DE000AFD7060EDB5007E0050EDBCFF3FFDB2A93
:101DF000F3503B0802E2050EDB6A050EDB0402E04D
:101E0000000E01D0010EE8B08280E8A0829037EF8A
:101E100009F00C0EE15C02E2E16AE552E16EE55286
:101E2000E7CFD9FF1200D9CFE6FFE1CFD9FFE652C5
:101E3000806A826ACF0E926E9368946AF16A0B0E82
:101E4000C16E010EC26E960EC06E050ECA6E770E82
:101E5000CB6E0F0EBD6E780EBE6E0F0EBA6E780E84
:101E6000BB6E0201030EB66FB76FB86FB96FA56B8B
:101E7000A5C2A4F2A5C2A3F2A5C2A2F2C26EC2B2CA
:101E8000FED7C45001E078D0640EC35C75E2010E49
:101E9000E66E000EE66EE66AC7EC26F0E552E55205
:101EA000E552B9EC27F0E66A010EE66EE66AC7EC89
:101EB00026F0E552E552E552B9EC27F0E66A020E4B
:101EC000E66EE66AC7EC26F0E552E552E552B9EC5B
:101ED00027F0E66A030EE66EE66AC7EC26F0E552E6
:101EE000E552E552B9EC27F0DF6A040EDF5C44E20C
:101EF000190EE66EE66ADFCFE6FF87DAE552E552B5
:101F0000E552E66A010EE66EDFCFE6FF7EDAE552C5
:101F1000E552E5521E0EE66E020EE66EDFCFE6FFDC
:101F200074DAE552E552E552320EE66E030EE66EC5
:101F3000DFCFE6FF6ADAE552E552E552E66A040EC3
:101F4000E66EDFCFE6FF61DAE552E552E552010EBB
:101F5000E66E050EE66EDFCFE6FF57DAE552E55294
:101F6000E552E66A060EE66EDFCFE6FF4EDAE55290
:101F7000E552E552DF2AB9D7808A8088828E828C2A
:101F800023EC12F0810ECD6EC00EF26EF06A010EDF
:101F90009D6EE552E552E7CFD9FF1200D9CFE6FF9B
:101FA000E1CFD9FF040EE12671EC12F07E0EE66E51
:101FB000000EE66E010EE66E54EC21F0E552E5529D
:101FC000E552DF6EDF5001E123D1DF500101FE2534
:101FD000146E7E0E145C01E3FE6BDFCFE6FFE66A53
:101FE000000EE66E010EE66EFE51156A000F146ECD
:101FF000020E152214C0E6FF15C0E6FFFCEC23F02C
:10200000166E060EE15E1650DF500101FE27FE51EE
:10201000EA6A000FE96E020EEA22EF6A0D0EE66E22
:10202000000EE66E020EE66EDAEC23F0E552E552A3
:10203000E552F3CF14F0F4CF15F01450151013E15E
:102040000A0EE66E000EE66E020EE66EDAEC23F085
:10205000E552E552E552F3CF16F0F4CF17F01650E3
:10206000171001E1D5D0FBD8E76E010EE7CFDBFFFB
:10207000DB506BE1010EDB28E66EE66AC40EE66E0D
:102080004E0EE66E000EE66E7E0EE66E010EE66EFB
:1020900082EC25F0146E070EE15E1450030EF3CFB0
:1020A000DBFF020EDB6A200EF36E020EDBCFF4FFC5
:1020B000F350F45C32E2020EDBCFE6FFE66A10EC8E
:1020C00027F0E552E552146E156A14BE156814C067
:1020D000E6FF15C0E6FFCC0EE66E4E0EE66E000E75
:1020E000E66E030EDB50176A7E0F166E010E172286
:1020F00016C0E6FF17C0E6FF82EC25F0186E070E4B
:10210000E15E1850030EDBCFE7FFF350E726030E26
:10211000E7CFDBFF020EDB2AC6D7C90EE66E4E0EF6
:10212000E66E000EE66E030EDB50156A7E0F146E2F
:10213000010E152214C0E6FF15C0E6FF82EC25F063
:10214000166E050EE15E16505FD0010EDB0448E10D
:10215000020EDB6A200EF36E020EDBCFF4FFF350AB
:10216000F45C2DE2030EDBCFF3FFDB2AF350EA6AC7
:10217000000FE96E020EEA22EF502C0801E0F2D7C0
:10218000030EDB50156A000F146E020E152214C0E8
:10219000E6FF15C0E6FF4FEC24F0E552E552F350A0
:1021A000E66E020EDBCFE6FFE66AC7EC26F0E552EC
:1021B000E552E552B9EC27F0020EDB2ACBD7BD0E73
:1021C000E66E4E0EE66E000EE66E7E0EE66E010EBA
:1021D000E66E82EC25F0146E050EE15E145014D00C
:1021E000000EE66E020EE66EB00EE66E4E0EE66E67
:1021F000000EE66E7E0EE66E010EE66E82EC25F0B7
:10220000146E070EE15E14500101FE6B0201006BBB
:102210000001615118E101017E5115E07E0EE66E6C
:10222000010EE66EEEEC23F0E552E552F350E66E59
:102230007E0EE66E010EE66EB5EC21F0E552E5523B
:10224000E55201017E6B5DEC22F0040EE15C02E2DE
:10225000E16AE552E16EE552E7CFD9FF1200D9CF2E
:10226000E6FFE1CFD9FF020EE12600C216F0176AA1
:1022700016BE176816C0E6FF17C0E6FFA1EC26F0F1
:10228000E552E552F3CF14F0F4CF15F0460E1418D2
:1022900001E1155002E0630E93D001C216F0176AF7
:1022A00016BE176816C0E6FF17C0E6FFA1EC26F0C1
:1022B000E552E552F3CF14F0F4CF15F0430E1418A5
:1022C00001E1155002E0630E7BD002C216F0176ADE
:1022D00016BE176816C0E6FF17C0E6FFA1EC26F091
:1022E000E552E552F3CF14F0F4CF15F0510E141867
:1022F00001E1155002E1000E63D0030EDF6E010E06
:10230000DB6ADF50EA6A000FE96E020EEA22EF5044
:102310000D0836E0DF50EA6A000FE96E020EEA228D
:10232000EF500A082DE0DF50EA6A000FE96E020E56
:10233000EA22EF502C0803E1010EDB2A1FD0DF5008
:10234000EA6A000FE96E020EEA22EF50200816E05A
:10235000DF50EA6A000FE96E020EEA22EFCF14F0B6
:10236000300E145C09E3DF50EA6A000FE96E020EDA
:10237000EA22EF50390802E2630E22D0DF2AC1D7E9
:10238000010EDB50200802E0630E1AD002C216F0E4
:10239000176A16BE176816C0E6FF17C0E6FFA1EC65
:1023A00026F0E552E552F3CF14F0F4CF15F0530EBA
:1023B000141801E1155002E1010E02D0630E00D0A5
:1023C000146E020EE15C02E2E16AE552E16E145025
:1023D000E552E7CFD9FF1200D9CFE6FFE1CFD9FF11
:1023E000FD0EDBCFE6FFFE0EDB50070DF350040FB2
:1023F000E552E724E66EE66A10EC27F0E552E55276
:1024000000D0E552E7CFD9FF1200D9CFE6FFE1CFE8
:10241000D9FFFC0EDBCFE6FFFD0EDBCFE6FFFE0EA5
:10242000DB50070DF350040FE552E724E66EE66A31
:10243000C7EC26F0E552E552E552B9EC27F0E5523B
:06244000E7CFD9FF1200F6
:0A244600D9CFE6FFE1CFD9FFE6523F
:102450006A6A686A160E6F6E9F0E6B6E7B0E696EEF
:102460006D8C6E6A020EE66EE66AE66A710EE66EC4
:102470000F0EE66EC0EC23F0146E050EE15E1450F4
:102480006D9CDF6ADF50146E156A100E145C000E2E
:10249000155810E2DF50040DF3CFE9FFF4CFEAFF47
:1024A000000EE926040EEA22EE6AEE6AEE6AEE6A91
:1024B000DF2AE8D7160E706E68A602D06896FCD7A1
:1024C0000201E36BE86BE96BEA6B6D98080ED66F5F
:1024D000040ED76FC86BC76BE552E552E7CFD9FF43
:1024E0001200D9CFE6FFE1CFD9FFE65284B606D07D
:1024F0006D6A696A0201C76BA19AA9D00201C7512E
:102500000FE16D6A696A160E6F6E9F0E6B6E7B0E21
:10251000696E6DB602D06D86FCD70201010EC76FE1
:10252000C70508E16DBA06D0686A696A698069887A
:10253000020EC76F6850040B05E06950040B02E0FF
:102540006894B5D86DA202D0A19A81D06850010BD1
:1025500012E06950010B0FE076DF0201040EC76F35
:102560000401400E026F040E036F080E016F006B32
:102570008C0E001368906850100B05E06950100B2A
:1025800002E083D868986850400B13E06950400B14
:1025900010E0010EE66EE66A000EE66EE66A730E65
:1025A000E66EE66ADBEC24F0146E060EE15E145073
:1025B000689C6850200B04E06950200B01E04CD867
:1025C0006850020B12E06950020B0FE0010EE66E3C
:1025D000E66A000EE66EE66AE668E668DBEC24F082
:1025E000146E060EE15E14506A6A040E0201E76E74
:1025F000C719E8AE02D0E73402D0E750C75D02E267
:10260000A19A25D069A622D0DF6A040EDF5C1EE203
:1026100068A61BD06CCFF1F26896780E0201F11516
:1026200002E15AD810D0000EE66EE66AF10EE66EB0
:10263000020EE66E720EE66EE66ADBEC24F0146EB5
:10264000060EE15E1450DF2AE0D700D0A19AE552D1
:10265000E552E7CFD9FF120070A015D0CAC2E9FF3A
:10266000CBC2EAFFEF5080080DE1D6C2E9FFD7C226
:10267000EAFFEF50840806E1CAC2E9FFCBC2EAFFD5
:102680008C0EEF6E7090689A1200698468986D8263
:10269000000EE66EE66AE66EE66A750EE66EE66ABD
:1026A000DBEC24F0146E060EE15E14501200000EF6
:1026B000E66EE66AE66EE66A740EE66EE66ADBECE5
:1026C00024F0146E060EE15E14506D92699468A4B5
:1026D00002D06894FCD71200D9CFE6FFE1CFD9FF32
:1026E000E652FD0E0201F1155AE17E0EF115E840A9
:1026F0007F0B040DF3CFCAF2F4CFCBF2000ECA2742
:10270000040ECB23CAC2CCF2CBC2CDF2CC75CAC266
:10271000E9FFCBC2EAFFEF503C0BE842E8420D086C
:102720003CE1CAC2E9FFCBC2EAFF020EE926000E75
:10273000EA22EECF14F0EFCF15F0480E141802E1A4
:10274000040E151828E1CAC2E9FFCBC2EAFF020E47
:10275000E926000EEA22400EEE6E040EED6EDF6AF0
:10276000DF50146E156A080E145C000E155813E243
:10277000DF50EA6A480FE96E040EEA22EF50E66E77
:10278000DF50EA6A400FE96E040EEA22E552E75094
:10279000EF6EDF2AE5D70DD801D02ED805D0FD0E7B
:1027A000F115040801E14FD8E552E552E7CFD9FF12
:1027B0001200D6C2E9FFD7C2EAFFEF50800B05E056
:1027C000D6C2E9FFD7C2EAFFEF6A0201DE6BDF6B18
:1027D000E46BE56BE36BBAD8000EE66EE66AE66E74
:1027E000E66A030EE66EE66ADBEC24F0146E060E73
:1027F000E15E14509FEF16F0020E0201DF5D03E16F
:1028000002EC18F01FD06CD80201F2511AE1CCC2D0
:10281000E9FFCDC2EAFFEE52080EEF6ECCC2E9FF2F
:10282000CDC2EAFF020EE926000EEA22400EEE6E4D
:10283000040EED6ECCC2E9FFCDC2EAFF8C0EEF6E46
:1028400001D0F26B1200D9CFE6FFE1CFD9FFE652FB
:10285000D6C2E9FFD7C2EAFFEF50400B01E0010EFC
:10286000DF6E0201D675080EC75D0AE142C46EFF35
:102870006E50000803E2100EC76F02D0040EC76F3F
:10288000DF0528E1D6C2E9FFD7C2EAFF020EE9263A
:10289000000EEA22480EEE6E040EED6E25DB020EEF
:1028A0000201DE5D07E1D6C2E9FFD7C2EAFF840E6E
:1028B000EF6E0FD0DF5007E1D6C2E9FFD7C2EAFFC3
:1028C000C80EEF6E06D0D6C2E9FFD7C2EAFF880E67
:1028D000EF6E01D005D8E552E552E7CFD9FF1200DF
:1028E000D9CFE6FFE1CFD9FF020EE1260201DF6B6F
:1028F000D6C2E9FFD7C2EAFFEF6A040ED619146EFA
:10290000D7C215F014C0DEFF15C0DDFFDECFE9FF32
:10291000DDCFEAFFEF6AE8AF0FD0EB51EC11ED111C
:1029200009E007D0EDC2FBFFECC2FAFF0201EB5158
:10293000F96EF8DF0201E89F020EE15C02E2E16A53
:10294000E552E16EE552E7CFD9FF12000401405194
:10295000600BE842E842E842E842E842000901E050
:1029600058D041510C0A54E00B0A43E00C0A35E000
:10297000010A26E00B0A22E0020A20E0030A1CE01A
:10298000080A10E0010A0CE00F0A08E0030A01E05F
:102990003FD00201E38F080EC76F3BD0C8D839D0B3
:1029A000D2DB37D00201C80EE06F020EE16FE38187
:1029B000010EE46FE38F2DD061D92BD02BD829D015
:1029C00044510201E06FE16BC90EE027020EE123E2
:1029D000E381010EE46FE38F1CD00201E38F040159
:1029E0004451EA6AC90FE96E020EEA2242C4EFFFBF
:1029F00010D0000EE66EE66AE66EE66A020EE66E3D
:102A0000E66ADBEC24F0146E060EE15E145001D091
:102A100000D01200D9CFE6FFE1CFD9FF040EE126A6
:102A20000401420510E140511F0B00090CE10201B5
:102A3000E38F030E0401415D04E10201010EF06F1A
:102A400002D00201F06B0401425167E140511F0BBB
:102A5000020863E144510F0B00095FE00201E38FBC
:102A6000040144BF10D044510F0BE96EEA6AD890BC
:102A7000E936EA36CE0EE926020EEA22EECFDEFF76
:102A8000EDCFDDFF0FD044510F0BE96EEA6AD8900D
:102A9000E936EA36D60EE926020EEA22EECFDEFF4E
:102AA000EDCFDDFF030E415D07E1DECFE9FFDDCFB6
:102AB000EAFF840EEF6E31D044510F0B156A700F90
:102AC000146E0F0E1522020E14C0DBFF030E15C08C
:102AD000DBFF020EDBCFE9FF030EDBCFEAFFEE9058
:102AE000ED5244AF0DD0DECFE9FFDDCFEAFFEF6A54
:102AF000DF74DECFE9FFDDCFEAFF400EEF6E0DD0D1
:102B0000DECFE9FFDDCFEAFF880EEF6EDF74DECFA8
:102B1000E9FFDDCFEAFFC80EEF6E040EE15C02E2D2
:102B2000E16AE552E16EE552E7CFD9FF1200800E6F
:102B30000401405D01E0A1D00201C00EE36F040179
:102B40004351030A56E0010A10E0030A03E00201C0
:102B5000E36B93D002014C0EE06F4A0EE16F000E62
:102B6000E26F120EE46FE56B88D0F70E146E4A0E1A
:102B7000156E000E166E42C417F0186A196A030E1D
:102B80000C6E0D6A0E6A17C007F018C008F019C065
:102B900009F04AEC23F004C017F005C018F006C095
:102BA00019F014501724F36E15501820F46E1650B7
:102BB0001920F86EF4CFF7FFF3CFF6FF0900F5CF39
:102BC000E0F20900F5CFE1F20800F5CFE2F2E0C251
:102BD000F6FFE1C2F7FFE2C2F8FF020EF626000E92
:102BE000F722F8220900F5CFE4F20A00F5CFE5F26A
:102BF00044D0030E425D3EE2FA0E146E4A0E156E8C
:102C0000000E166E42C417F0186A196A030E0C6E95
:102C10000D6A0E6A17C007F018C008F019C009F055
:102C20004AEC23F004C017F005C018F006C019F0F4
:102C300014501724F36E15501820F46E16501920F6
:102C4000F86EF4CFF7FFF3CFF6FF0900F5CFE0F20F
:102C50000900F5CFE1F20800F5CFE2F2E0C2F6FF9D
:102C6000E1C2F7FFE2C2F8FF0800F5500201E46F8D
:102C7000E56B02D00201E36B00D01200D9CFE6FF72
:102C8000E1CFD9FF020EE1260401486B496B4051A8
:102C90001F0B020A12E0030A0DE0010A01E03BD01B
:102CA0000201E38F040148810201F00502E1040101
:102CB000488331D00201E38F2ED00201E38F04015B
:102CC00044BF10D044510F0BE96EEA6AD890E93640
:102CD000EA36CE0EE926020EEA22EECFDEFFEDCF77
:102CE000DDFF0FD044510F0BE96EEA6AD890E93648
:102CF000EA36D60EE926020EEA22EECFDEFFEDCF4F
:102D0000DDFFDECFE9FFDDCFEAFFEF50040B02E08D
:102D1000010E486F00D00201E3AF07D0480EE06F0C
:102D2000040EE16FE381020EE46F020EE15C02E249
:102D3000E16AE552E16EE552E7CFD9FF12006D98E6
:102D40000201E3BF4AD0E8AF28D0020EDF6FD6C23F
:102D5000E9FFD7C2EAFFEE52EF6AD6C2E9FFD7C257
:102D6000EAFFC80EEF6ECCC2E9FFCDC2EAFFEE5219
:102D7000080EEF6ECCC2E9FFCDC2EAFF020EE926D3
:102D8000000EEA22480EEE6E040EED6ECCC2E9FF94
:102D9000CDC2EAFFC80EEF6E1FD0CCC2E9FFCDC294
:102DA000EAFFEE52080EEF6ECCC2E9FFCDC2EAFF99
:102DB000020EE926000EEA22400EEE6E040EED6EC3
:102DC000CCC2E9FFCDC2EAFF8C0EEF6ED6C2E9FF9E
:102DD000D7C2EAFF840EEF6E86D0E8BF84D004012C
:102DE00040AF59D00201E4510401465D0201E551B2
:102DF0000401475904E246C4E4F247C4E5F274D83A
:102E00000201010EDF6FCCC2E9FFCDC2EAFFEE5234
:102E1000080EEF6ECCC2E9FFCDC2EAFF020EE92632
:102E2000000EEA22400EEE6E040EED6ECCC2E9FFFB
:102E3000CDC2EAFF800EEF6EF26BCAC2E9FFCBC2D1
:102E4000EAFFEE52080EEF6ECAC2E9FFCBC2EAFFFC
:102E5000020EE926000EEA22400EEE6E040EED6E22
:102E6000CAC2E9FFCBC2EAFF840EEF6E010EF26F19
:102E7000D6C2E9FFD7C2EAFF020EE926000EEA2217
:102E8000480EEE6E040EED6ED6C2E9FFD7C2EAFF21
:102E9000C80EEF6E28D00201020EDF6FD6C2E9FF26
:102EA000D7C2EAFFEE52EF6AD6C2E9FFD7C2EAFF05
:102EB000C80EEF6ECCC2E9FFCDC2EAFFEE52080E9B
:102EC000EF6ECCC2E9FFCDC2EAFF020EE926000E8A
:102ED000EA22480EEE6E040EED6ECCC2E9FFCDC2C2
:102EE000EAFFC80EEF6E1200D9CFE6FFE1CFD9FF9F
:102EF000020EE1260201080EE45D000EE5590EE225
:102F0000E4C2DEFFE5C2DDFFDE5103E1010EDE6F4C
:102F100004D0DE0502E1020EDE6F03D0080EDE6E85
:102F2000DD6AD6C2E9FFD7C2EAFFEF92D6C2E9FF57
:102F3000D7C2EAFFEF90D6C2E9FFD7C2EAFF010E7F
:102F4000DB50EF12D6C2E9FFD7C2EAFFEE52DFCF65
:102F5000EFFF000EDB50E45F010EDB50E55B480E37
:102F6000EE6F040EEF6FE3B124D0D9CFE9FFDACFD3
:102F7000EAFFEE50ED101CE0E0C2F6FFE02BE1C2EC
:102F8000F7FF000EE123E2C2F8FFE2230800F5504C
:102F9000E66EEEC2E9FFEFC2EAFFEE2B000EEF2372
:102FA000E552E750EF6EDF06010E01E2DB06DDD7EA
:102FB0001FD0D9CFE9FFDACFEAFFEE50ED1018E0CD
:102FC000E0C2E9FFE1C2EAFFE02B000EE123EF508F
:102FD000E66EEEC2E9FFEFC2EAFFEE2B000EEF2332
:102FE000E552E750EF6EDF06010E01E2DB06E1D7A6
:102FF000020EE15C02E2E16AE552E16EE552E7CFE2
:10300000D9FF1200D9CFE6FFE1CFD9FF020EE126AA
:10301000CAC2E9FFCBC2EAFFEE52EFCFDFFFDFCF3C
:1030200014F014500201E95D000EEA5903E2E9C20E
:10303000DFFF09D0DF50146E156A1450E95DE96FA7
:103040001550EA59EA6F010EDB6ADF50F36E010E8C
:10305000DBCFF4FFF350F45C16E2010EDB50EA6ABA
:10306000480FE96E040EEA22EF50E66EE6C2E9FF71
:10307000E7C2EAFFE62B000EE723E552E750EF6ECA
:10308000010EDB2AE2D7000ED880E955000EEA5582
:1030900028E2CCC2E9FFCDC2EAFFEE52080EEF6E85
:1030A000CCC2E9FFCDC2EAFF020EE926000EEA22F9
:1030B000480EEE6E040EED6ECAC2E9FFCBC2EAFF07
:1030C000EF50400B07E1CCC2E9FFCDC2EAFFC80ECA
:1030D000EF6E06D0CCC2E9FFCDC2EAFF880EEF6EDC
:1030E00028D0CCC2E9FFCDC2EAFFEE52080EEF6E47
:1030F000CCC2E9FFCDC2EAFF020EE926000EEA22A9
:10310000400EEE6E040EED6ECCC2E9FFCDC2EAFFBA
:10311000840EEF6EEB51EC11ED1109E007D0EDC21A
:10312000FBFFECC2FAFF0201EB51F96EF8DF02017E
:10313000E89F020EE15C02E2E16AE552E16EE552CF
:10314000E7CFD9FF12000201E38F020EE66EE66AB6
:10315000E66A710EE66E0F0EE66EC0EC23F0146E9A
:10316000050EE15E1450010EE66EE66AE66AC90ECF
:10317000E66E020EE66EC0EC23F0146E050EE15E04
:10318000145042C4C8F20201C85103E1100EC76FC7
:1031900012D0200EC76F010EE66EE66AC80EE66E0C
:1031A000020EE66E010EE66EE66ADBEC24F0146EAB
:1031B000060EE15E14501200D9CFE6FFE1CFD9FF31
:1031C000020EE126000EDE6E040EDD6EFD0EDB50FB
:1031D000E824166EFE0EDB50040DF3501624040D89
:1031E000F350146E156A020E0F0B05E0D8901532DD
:1031F0001432E806FBE1D89014361536D890143610
:103200001536D9CFE9FFDACFEAFF1450EE26155074
:10321000ED22DECFE9FFDDCFEAFFEF9EFD0EDB50B2
:103220000FE1FE0EEA6ADB34FE0BEA36E96ECE0EE3
:10323000E926020EEA22DECFEEFFDDCFEDFF0ED053
:10324000FE0EEA6ADB34FE0BEA36E96ED60EE9269C
:10325000020EEA22DECFEEFFDDCFEDFFDECFE9FF8B
:10326000DDCFEAFFEF9CDECFE9FFDDCFEAFF040E02
:10327000E926000EEA22EF8C020EE15C02E2E16A2E
:10328000E552E16EE552E7CFD9FF1200D9CFE6FF54
:10329000E1CFD9FF020EE126FE0EDB50156A700F5A
:1032A000146E0F0E152214C0DEFF15C0DDFFDECF39
:1032B000E9FFDDCFEAFFFD0EDBCFEFFFDBA407D098
:1032C000E66AFE0EDBCFE6FF77DFE552E552FD0E44
:1032D000DBA208D0010EE66EFE0EDBCFE6FF6CDF50
:1032E000E552E552020EE15C02E2E16AE552E16E6E
:1032F000E552E7CFD9FF1200D9CFE6FFE1CFD9FFE2
:10330000020EE126FE0EDB5020E1CCC2E9FFCDC269
:10331000EAFFEE52080EEF6ECCC2E9FFCDC2EAFF23
:10332000020EE926000EEA22400EEE6E040EED6E4D
:10333000CCC2E9FFCDC2EAFF8C0EEF6ED6C2E9FF28
:10334000D7C2EAFF840EEF6E3DD0FD0EDB50E824BD
:10335000166EFE0EDB50040DF3501624040DF3CF51
:1033600014F0F4CF15F0000E1426040E152214C02C
:10337000DEFF15C0DDFF840E146EDECFE9FFDDCF6A
:10338000EAFF1450EF12FD0EDB50E824166EFE0E1D
:10339000DB50040DF3501624010F040DF3CF14F08D
:1033A000F4CF15F0000E1426040E152214C0DEFF13
:1033B00015C0DDFF840E146EDECFE9FFDDCFEAFF1E
:1033C0001450EF12020EE15C02E2E16AE552E16E96
:1033D000E552E7CFD9FF1200D9CFE6FFE1CFD9FF01
:1033E000020EE126FD0EDB500FE0FE0EEA6ADB3432
:1033F000FE0BEA36E96ED60EE926020EEA22EECF81
:10340000DEFFEDCFDDFF0ED0FE0EEA6ADB34FE0BF1
:10341000EA36E96ECE0EE926020EEA22EECFDEFF94
:10342000EDCFDDFFDECFE9FFDDCFEAFF020EE926BB
:10343000000EEA22FB0EDBCFEEFFFC0EDBCFEDFF32
:10344000DECFE9FFDDCFEAFFEE52FA0EDBCFEFFF72
:10345000400E146EDECFE9FFDDCFEAFF1450EF1609
:10346000880E146EDECFE9FFDDCFEAFF1450EF12B5
:10347000FD0EDB500CE0FE0EEA6ADB34FE0BEA3692
:10348000E96ED60EE926020EEA22EF740BD0FE0E8C
:10349000EA6ADB34FE0BEA36E96ECE0EE926020E4E
:1034A000EA22EF74DECF14F0DDCF15F014C0F3FF85
:1034B00015C0F4FF020EE15C03E200D0E16AE552C0
:1034C000E16EE552E7CFD9FF1200D9CFE6FFE1CF99
:1034D000D9FF6DA84ED0FE0EEA6ADB34FE0BEA3649
:1034E000E96ED60EE926020EEA22EE50EFCFEAFF91
:1034F000E96E400EEE16EE6AEE6AEE6AFE0EEA6ABB
:10350000DB34FE0BEA36E96ED60EE926020EEA221D
:10351000EE50EFCFEAFFE96EEE7CFE0EEA6ADB3496
:10352000FE0BEA36E96ED60EE926020EEA22EF74A9
:10353000400E146EFE0EEA6ADB34FE0BEA36E96ECC
:10354000D60EE926020EEA22EE50EFCFEAFFE96E30
:103550001450EF16FE0EEA6ADB34FE0BEA36E96E13
:10356000D60EE926020EEA22EE50EFCFEAFFE96E10
:0A357000EF7CE552E7CFD9FF12000F
:06357A00F9EC1FF0FB0E4E
:10358000DBCFF3FFDB06F35000090AE047EC20F045
:10359000FA0EB2EC20F0F3E1151CF1E1010E01D0BE
:1035A000000E28EF20F0F9EC1FF03B0EE12402E3BF
:1035B000E168E652E16E010EDB6A020EDB6AF90E8B
:1035C000DBCFF6FFFA0EDBCFF7FFFB0EDBCFF8FF0A
:1035D0000800F550DF6EDF5002E14CEF1FF0250EC2
:1035E000DF5C02E03FEF1FF0030EDB6A040EDB6AD4
:1035F000050EDB6A060EDB6A070EDB6A61EC1FF064
:103600002D0EDF5C0CE02B0EDF5C09E0200EDF5C92
:1036100006E0230EDF5C03E0300EDF5C1AE1DF50D2
:10362000300A14E0130A0FE0030A0AE00B0A05E06F
:10363000060AE4E1030EDB80E1D7030EDB82DED76E
:10364000030EDB84DBD7030EDB86D8D7030EDB88C3
:10365000D5D72A0EDF5C1BE15DEC1FF0ABEC1FF051
:1036600010E0030EDB8008680968130EDBCF0DF055
:10367000140EDBCF0EF093EC23F0040E06C0DBFF3C
:1036800003D0130E94EC1FF061EC1FF00BD0090E69
:10369000DB6A02EC20F003E076EC20F0FAD7090EAA
:1036A00094EC1FF0030EDBB0DB982E0EDF5C1BE109
:1036B00061EC1FF02A0EDF5C0BE15DEC1FF0ABEC60
:1036C0001FF003E1130EE6EC1FF061EC1FF00BD0CE
:1036D000090EDB6A02EC20F003E076EC20F0FAD76A
:1036E000090EE6EC1FF0680EDF5C07E161EC1FF0ED
:1036F000680EDF5C1DE1030E18D0740EDF5C17E06E
:103700007A0EDF5C14E0480EDF5C06E0540EDF5CEE
:1037100003E05A0EDF5C02E1020E07D06C0EDF5CA4
:1037200003E06A0EDF5C04E1010E39EC20F0C9DB36
:10373000DF506E0A01E17FD31E0A01E192D1200A17
:1037400001E18FD13F0A01E149D11A0A01E146D1D5
:103750000D0A01E143D1200A01E140D13A0A01E119
:103760003DD1200A01E13AD1260A01E135D10D0A05
:1037700001E132D11A0A01E1D9D0200A4AE0300A27
:103780001FE0460A0EE0250A01E083D3D950F90F65
:10379000E96EFF0EDA20EA6E010EEE5E000EEE5AC2
:1037A000EE5A47EC20F0250EE66E95DB03E1151C82
:1037B00001E169D343EC20F001E26BD3DB2A69D34A
:1037C000080EDB6A040EDB50010806E2040EDB047F
:1037D0000BEC20F0DB508BDB080EDB5009E0030E16
:1037E000DB50010B05E172DB01E04DD3080EDB6A13
:1037F00064DBEFCFDFFFBBEC20F003E1151C01E140
:1038000042D343EC20F001E3DB2A60DB01E141D34A
:103810003AD3070EDB5002080FE187EC20F0030ECD
:103820004EEC20F00E0EEECFDBFF0F0EEECFDBFFE7
:10383000100EEECFDBFF20D0F70EDBCF17F0F80E27
:10384000DBCF18F0020E175E000E185AF70E17C0E5
:10385000DBFFF80E18C0DBFF17C0E9FF18C0EAFF56
:103860003EEC20F0166A0E0E14C0DBFF0F0E15C0E2
:10387000DBFF100E16C0DBFF0E0EDBCFE6FF0F0ED8
:10388000DBCFE6FF100EDBCFE6FF2AEC24F0E5529B
:10389000E552E552130E07C0DBFF140E08C0DBFF34
:1038A000060EDB5005E0130E82EC20F001E26ADB2D
:1038B000A6EC20F002E2130E37DB69EC20F006E004
:1038C000040E82EC20F002E2050E2EDB030EDBB0CC
:1038D00005D0FCDA01E0D7D2080EDB6A090EDB6AFC
:1038E0000E0EDBCFF6FF0F0EDBCFF7FF100EDBCF98
:1038F000F8FF0800F550DF6EDF5014E0ACEC20F06C
:1039000011E2BBEC20F003E1151C01E1BCD2BBDBF2
:1039100001E3DB2A090EDB2AD9500E0FE96E000EF7
:10392000CBDBE7D7D3DA01E1B4D2ADD2C6DA110EE0
:10393000EECFDBFF120EEDCFDBFF110EDBCFE6FF8C
:10394000120EDBCFE6FFEEEC23F0E552E552130E4C
:10395000F3CFDBFF140EF4CFDBFF060EDB5004E0E9
:10396000130ED0DB01E20EDBA6EC20F002E2130E18
:10397000DBDAAFDB05E0040EC5DB02E2050ED4DACC
:10398000030EDBB005D0A2DA01E07DD2080EDB6ABF
:10399000090EDB6A110EDBCFE9FF120EDBCFEAFF67
:1039A000EFCFDFFFDF5014E0D7DB12E2E4DB03E10F
:1039B000151C01E168D267DB01E3DB2A090EDB2A73
:1039C000110EDB2ADBCFE9FF120EE8E3DB2AE6D794
:1039D0007DDA01E15ED257D2030EDB8E070EDB04E7
:1039E00010E195DB040E5ADB0A0EEECFDBFF0B0E67
:1039F000EECFDBFF0C0EEECFDBFF0D0EEECFDBFFCD
:103A00006CD0070EDB5003082CE1030EDBAE0DD0AB
:103A1000B2DA020E76DAEFCF14F0156A166A176A78
:103A200014AE39D01568166835D0F70EDBCF15F017
:103A3000F80EDBCF16F0020E155E000E165AF70ECA
:103A400015C0DBFFF80E16C0DBFF15C0E9FF16C07E
:103A5000EAFFEFCF14F00A0E14C0DBFF0B0EDB6A97
:103A600038D0070EDB50020809E1030EDBAE04D0AC
:103A700059DB16AE10D00ED055DB0DD0030EDBAEE9
:103A800012D079DA020E3DDAF9DA166A176A15AE43
:103A900002D016681768E2DA0C0E16C0DBFF0D0EB6
:103AA00017C0DBFF1AD0F70EDBCF16F0F80EDBCF16
:103AB00017F0020E165E000E175AF70E16C0DBFF47
:103AC000F80E17C0DBFF16C0E9FF17C0EAFFD6DA11
:103AD000C5DA0C0EDB6A0D0EDB6A060EDB5005E163
:103AE000010EF36E050EF3CFDBFF150EDB6A160E2B
:103AF000DB6AD950370F146E000EDA20156E390EBE
:103B000014C0DBFF3A0E15C0DBFF380EDB6A080E6F
:103B1000DB6A0A0EAEDADF50780A12E0200A10E003
:103B2000280A0CE0200A0AE03F0A06E00D0A02E03B
:103B3000200A08E1020E05D0080E03D0080EDF2689
:103B4000100E97DA030EDBBE02D0DB92DB94DB5063
:103B5000800B24E08ADAD890030EEB50000A08E6C6
:103B6000000EEE5C000EEE58000EEE58000EEE5801
:103B700015E213DA0B680C680D680E6869EC26F024
:103B80000A0E02C0DBFF0B0E03C0DBFF0C0E04C0ED
:103B9000DBFF0D0E05C0DBFF2D0E08D0030EDBA2F0
:103BA00002D02B0E03D0DBA408D0200EF36E170E2C
:103BB000F3CFDBFF150EDB2A02D0170EDB6A050EF2
:103BC000DB5003E1B7D901E189D0600E146E4F0ECE
:103BD000156E000E166E070EDBCF17F0186A196A05
:103BE0001A6A17C00BF018C00CF019C00DF01AC0FB
:103BF0000EF0D3D9ECEC26F014500224F36E1550DD
:103C00000320F46E16500420F86EF4CFF7FFF3CFC4
:103C1000F6FF0800090EF5CFDBFF580EDF5C0FE161
:103C2000610EF36E090E7BD90AE3200E146E090EA5
:103C3000DBCFE7FF1450E75E090EE7CFDBFF070E8F
:103C4000DBCF14F0156A166A176A0FDA14C00BF08E
:103C500015C00CF016C00DF017C00EF0EECF06F038
:103C6000EECF07F0EECF08F0EFCF09F0ECEC26F046
:103C700009C0EDFF08C0EDFF07C0EDFF06C0EFFF74
:103C8000390EDBCFE9FFDB063A0EDBCFEAFF01E2BC
:103C9000DB06090EDBCFEFFF150EDB2A4BD995E1D2
:103CA000030EDBA61DD06F0EDF5C06E1C1D918E361
:103CB000150EDB285BDA14D0780EDF5C09E0580EB5
:103CC000DF5C06E0620EDF5C03E0420EDF5C08E1D1
:103CD000020EF36E160EF3CFDBFF02D0150EDB6A79
:103CE000030EDB50100B0EE0040EDBCF14F0050EBC
:103CF000DB50D880145406E2060EDB5003E1040EBC
:103D0000DB5034DA95D90AE2050EDBCFE7FF150E5A
:103D1000DB50E75E050EE7CFDBFF02D0050EDB6A66
:103D2000040EDBCF14F0160E45D9D880145414E2DB
:103D3000160EDBCFE6FF150EDBCFE6FF040EDBCF62
:103D4000E6FF050EDB50E552E75CE552D880E7540C
:103D5000E552D880E7545FD9030EDB50010B0BE12D
:103D6000080EDB5008E0B2D801E08DD0080EDB5021
:103D7000BED8080EDB6A170EDB5007E088D9170E95
:103D8000F1D903E1151C01E17ED0160EDB5016E0DF
:103D90007ED9300EE66E9FD802E1151C74E077D90B
:103DA000DFCFE6FF27EC26F0E552E552E552F4CFEF
:103DB00015F00001F31C02E1151C65E0050EDBCFD8
:103DC00014F0160EDB50D880145409E2050EDBCF38
:103DD000E7FF160EDB50E75E050EE7CFDBFF300E88
:103DE000E66E050ECBD94FE1390EDB2ADBCFE9FFBA
:103DF0003A0E01E3DB2ADBCFEAFF090EEFCFDBFF50
:103E0000DB500EE044D9090EADD902E1151C3BE0B0
:103E1000390EDB2ADBCFE9FF3A0EEDE3DB2AEBD7E5
:103E200055D831E1160EDBCFE6FF080EC3D8E552B8
:103E3000E7245DD82ED0070EDB50030A1CE0010AF0
:103E400014E0030A07E07BD9DBCFEEFF020EDBCFE5
:103E5000EDFF1FD0F5D8196A17AE02D0186819689F
:103E60002CD8BCD819C0EEFF14D0EAD817BE1868F9
:103E700024D8B4D80ED063D9DBCFEFFF0AD07BD9DA
:103E800005E1151C03E1F368F46810D0FCD801E3E8
:103E9000DB2A79D9E8EF1AF0010EDBCF14F0020E1D
:103EA000DBCF15F014C0F3FF15C0F4FF3B0EE15C4F
:103EB00002E2E16AE552E16ECBD029D9020E4EEF63
:103EC00020F061D90800F550DF6E1200200EE66E7A
:103ED000080EBEEF20F027EC26F0E552E552E55241
:103EE000F3CF14F0F4CF15F00001F31C1200146EA0
:103EF000156AD950010F4DD91450EE261550ED22F8
:103F00001200185E000E195AF70E18C0DBFFF80EEB
:103F100019C0DBFF18C0E9FF19C0EAFF1200DBCFB0
:103F2000F4FFF350F45C1200DB50E76E040EE7CFB1
:103F3000DBFF12000A0EDBCF14F00B0EDBCF15F007
:103F40000C0EDBCF16F00D0EDBCF17F01450151052
:103F5000161017101200130EEECFDBFF140EEDCF6C
:103F6000DBFF130EDBCF14F0140EDBCF15F00001D6
:103F7000800E15141200F70EDBCF18F0F80EDBCF11
:103F800019F01200050EDB50E66ED950130F01D95F
:103F9000E552E750EE6EED6A12000A0EDBCF06F036
:103FA0000B0EDBCF07F00C0EDBCF08F00D0EDBCFD6
:103FB00009F01200DBCFE6FF150EDBCFE6FF050EA2
:103FC000DB50E552E724E552E7241200DB50CED85F
:103FD000010EF36E060EF3CFDBFF1200EE50EFCFB3
:103FE000EAFFE96E16C0EEFF17C0EEFF18C0EEFF45
:103FF0001200D9CFE6FFDACFE6FFE1CFD9FFE2CF5B
:10400000DAFF1200DFCFE6FFE66AB5EC26F0E552F4
:10401000E552F3501200E76E080EE7CFDBFF120007
:10402000EECF14F0EECF15F0EFCF16F0176A1200B6
:10403000050EDBCF14F0150EDB50D880145412009F
:10404000010EDBCF16F0020EDBCF17F0186A12005C
:10405000E552E5CFDAFFE7CFD9FF12000A0E14C010
:10406000DBFF0B0E15C0DBFF1200D9500A0FC9EFA2
:1040700020F0F36E070EF3CFDBFF1200EECF14F04B
:10408000EFCF15F01200010EDB2A020E1200FC0E1B
:10409000DBCFE6FFFD0EDBCFE6FF1200145E000E65
:1040A000155AF70E14C0DBFFF80E15C0DBFF14C065
:1040B000E9FF15C0EAFF1200DA20EA6EEF2AEECF20
:1040C000F6FF000EEF22EECFF7FFEF22EECFF8FF64
:1040D0001200040EDBCFE6FF130EDB50E552E75C67
:1040E0009ADFDB5004DF060EDB501200090EDB50B6
:1040F0000A0DF350DF24D00FE76E090EE7CFDBFF88
:1041000061EF1FF0DB50F36E050E8FEF1FF0F70E1F
:10411000DBCF14F0F80EDBCF15F01200DFCFE6FF97
:104120006BEF1FF028DF030EECDE10EF20F0BDEC8C
:104130001AF0E552E552E552E55200091200BDDEE3
:10414000EE50EFCFEAFFE96E010E1200130EDB50C6
:10415000F36E040E8FEF1FF0040EDB50F36E090EAA
:104160008FEF1FF0DBCFE6FF6BEF1FF0E76E050E62
:10417000E7CFDBFF12008BDF8EEF20F0DBCFE6FF17
:1041800086DF97EF20F0D950F90FE96EFF0E5CEF54
:0C41900020F0E96E000EDA20EA6E12004A
:04419C000401405189
:1041A0001F0B010801E04BD04051600BE842E84290
:1041B000E842E842E842010801E041D0445103E00E
:1041C000440501E03CD04151220A34E0030A27E0D3
:1041D000010A17E0210A0EE0010A01E030D00201D5
:1041E000730EE06F000EE16F080EE46FE56BE38184
:1041F000E38F25D00201730EE06F000EE16FE38FB5
:104200001ED046C4E9F247C4EAF20201880EE66F06
:10421000050EE76FEB6BEC6BED6BE88F10D00201D6
:10422000880EE06F050EE16F070EE46FE56BC10EBF
:10423000E36F05D042C46EF00201E38F00D012009C
:104240000501886B4B0E896F8A6B8B6B8C6B8D6B4A
:10425000080E8E6F0001616B606B1A0EE66E020E27
:10426000E66E46EC19F0E552E5521E0EE66E030EC0
:10427000E66E46EC19F0E552E552400EE66E080E89
:10428000E66E050EE66EE66A030EE66EECEC19F0DD
:10429000146E050EE15E1450F3CF6AF0F4CF6BF0AC
:1042A00000016C6B6D6B1200D9CFE6FFE1CFD9FF37
:1042B0000001606B6A516B1102E1000E08D06AC008
:1042C000E9FF6BC0EAFFEF50800B01E0010E00092F
:1042D00045E1FC0EDBCF14F06AC0E9FF6BC0EAFFDA
:1042E000EE52EF50D880145408E26AC0E9FF6BC068
:1042F000EAFFEE52FC0EEFCFDBFF606BFC0EDB50F3
:10430000605D19E26051EA6A080FE96E050EEA2263
:10431000EF50E66E6051E76EFD0EDBCFE9FFFE0E5B
:10432000DBCFEAFFE750E926000EEA22E552E7502C
:10433000EF6E602BE3D7400EE66E080EE66E050EBC
:10434000E66EE66A030EE66EECEC19F0146E050EEE
:10435000E15E1450F3CF6AF0F4CF6BF000016051CE
:1043600000D0E552E7CFD9FF1200D9CFE6FFE1CF69
:10437000D9FF000161510CE1FD0EDBCF62F0FE0EB2
:10438000DBCF63F0FC0EDBCF68F0010E696F616F6D
:10439000E552E7CFD9FF1200D9CFE6FFE1CFD9FF31
:1043A000030EE1260001615101E02ED0DF6AFD0E0F
:1043B000DBCF08F0FE0EDBCF09F0DE5208C0DEFFD7
:1043C00009C0DDFFDD52DF2ADF50146E156AFF0ED3
:1043D000141801E1155001E10BD0010EDBCFE9FF0C
:1043E000DB2A020EDBCFEAFF01E3DB2AEF50EBE131
:1043F000FD0EDBCF62F0FE0EDBCF63F0DFCF68F0A7
:104400000001010E696F616F030EE15C02E2E16A77
:10441000E552E16EE552E7CFD9FF1200D9CFE6FFB2
:10442000E1CFD9FF040EE1260001615101E03BD04C
:10443000DF6AD950FC0FE96EFF0EDA20EA6E010E3A
:10444000EECFDBFF020EEECFDBFF030EEECFDBFF86
:10445000DF2ADF50146E156AFF0E141801E11550A3
:1044600001E112D0D950010FE96EDACFEAFFEFCFA8
:10447000F6FFEE2AEFCFF7FF000EEE22EFCFF8FFA8
:10448000EE220800F550E4E1FC0EDBCF62F0FD0EF9
:10449000DBCF63F0FE0EDBCF64F0DFCF68F000010E
:1044A000696B010E616F040EE15C02E2E16AE552A4
:1044B000E16EE552E7CFD9FF1200D9CFE6FFE1CF99
:1044C000D9FF020EE12600016C516D1102E1000ED0
:1044D00008D06CC0E9FF6DC0EAFFEF50800B01E02F
:1044E000010E000901E088D0030E615D01E1616BFE
:1044F000615101E181D0020E615D16E1E66A000EB4
:10450000E66EE66A010EE66E030EE66EECEC19F05E
:10451000146E050EE15E1450F3CF6CF0F4CF6DF025
:104520000001030E616F68D0610566E1400E146EF4
:10453000156A6851145C000E155803E2400EDF6ED8
:1045400002D068C0DFFFDF50685D686F480E656F9E
:10455000050E666F010EDFCFDBFF69511AE1010E18
:10456000DB5016E062C0F6FF63C0F7FF64C0F8FFDF
:104570000800F55065C0E9FF66C0EAFFEF6E652BE5
:10458000000E6623622B63236423010EDB06E7D74C
:1045900015D0010EDB5012E062C0E9FF63C0EAFFF4
:1045A000EF5065C0E9FF66C0EAFFEF6E652B000EB5
:1045B0006623622B6323010EDB06EBD7685108E10B
:1045C000400EDF5C03E1020E616F02D0030E616FEB
:1045D000DFCFE6FF480EE66E050EE66E010EE66ED4
:1045E000030EE66EECEC19F0146E050EE15E14504D
:1045F000F3CF6CF0F4CF6DF0020EE15C02E2E16A01
:0C460000E552E16EE552E7CFD9FF120051
:04460C00006A0EAE84
:104610000FEF23F00D6C0E1EE86A0E22001E09AE8D
:1046200017EF23F0086C091EE86A0922001E42EC0D
:1046300027F009BE27EF23F000AE000C086C091E1E
:10464000E86A0922046C051EE86A0522000C00BE17
:104650001EEF23F00188FF0C08C012F008500D0275
:10466000F4CF07F0F3CF06F009500E02F4CF09F0B3
:10467000F3CF08F00D02F3500726F4500822E86A41
:10468000092212500E02F3500726F4500822E86A5D
:104690000922000C09C013F008C012F007C011F085
:1046A00007500C02F4CF05F0F3CF04F008500D02D0
:1046B000F4CF07F0F3CF06F00C02F3500526F450C8
:1046C0000622E86A072211500D02F3500526F45025
:1046D0000622E86A072209500C02F3500626F4501D
:1046E000072209500D02086AE86A0822F3500726DB
:1046F000F450082211500E02F3500626F4500722FF
:10470000096AE86A0822092212500E02F3500726AD
:10471000F4500822E86A092213500E02F3500826CA
:10472000F4500922000C09C013F008C012F0085020
:104730000D02F4CF07F0F3CF06F009500E02F4CFCC
:1047400009F0F3CF08F00D02F3500726F4500822C9
:10475000E86A092212500E02F3500726F45008228C
:10476000E86A09220EAEB9EF23F01250085E13502A
:10477000095A13AE000C0D50085E0E50095A000C79
:10478000FE0EE3CFE9FFFF0EE3CFEAFFE9CFF3FF31
:10479000EACFF4FFFB0EE35003E1FC0EE35009E027
:1047A000FB0EE30602E2FC0EE306FD0EE350EE6EA6
:1047B000F1D71200FE0EE3CFE9FFFF0EE3CFEAFFD1
:1047C000FD0EE350EF5C05E0EE66FAD7F36AF46A9B
:1047D00004D0E9CFF3FFEACFF4FF1200FE0EE3CFDF
:1047E000E9FFFF0EE3CFEAFFF36AF46AEE5203E05B
:1047F000F34AF42AFBD71200D9CFE6FFDACFE6FF5F
:10480000FA0EE3CFD9FFFB0EE3CFDAFFFC0EE3CFC6
:10481000E9FFFD0EE3CFEAFFE9CFF3FFEACFF4FFB4
:10482000F80EE35003E1F90EE3500BE0F80EE30657
:1048300002E2F90EE306DECFEFFFEE66F1D7DD52BE
:10484000EFD7FF0EE3CFDAFFE552FF0EE3CFD9FF3C
:10485000E5521200FF0EE3CFF8FFE552FF0EE3CF63
:10486000F7FFE552FF0EE3CFF6FFE552E66AE66A90
:10487000E66A0900F55209E0FD0EE32A05E1FE0EA5
:10488000E32A02E1FF0EE32AF4D7FD0EE3CF07F09F
:0E489000FE0EE3CF08F0FF0EE3CF09F012009A
:02489E00FF0E0B
:1048A000E3CFEAFFE552FF0EE3CFE9FFE552E66A08
:1048B000E66AD9CFE6FFDACFE6FFFC0EE124D96E37
:1048C000FF0EE220DA6EE66AE66AE66A200EEF5C28
:1048D00006E0090EEF5C03E0EF6603D03FD0EE5038
:1048E000F5D72D0EEF5C03E1FF0EE32A03D02B0E6C
:1048F000EF5C01E1EE502F0EEF6424D03A0EEF6032
:1049000021D0D890F90EE336FA0EE336FD0EDECF55
:10491000E3FFFE0EDDCFE3FFD890F90EE336FA0E8B
:10492000E336D890F90EE336FA0EE336FD0EE35087
:10493000DE26FE0EE350DD22300EEE5CDE26000E9B
:10494000DD22D9D7FF0EE3CFE8FFE85207E0F90EEA
:10495000E31EE32AFA0ED8B4E306E31EE552E5525D
:10496000E552FF0EE3CFDAFFE552FF0EE3CFD9FFAA
:10497000E552E1CFE9FFE2CFEAFFED52ED52EECF93
:08498000F3FFEFCFF4FF12007A
:084988001200120012001200DF
:10499000CEEF20F0120020EF21F06D840001080E10
:1049A000856F070E866F8507000E865B8551861121
:1049B000FAE16D941200D9CFE6FFE1CFD9FFFD0EE9
:1049C000DBCF08F0FE0EDBCF09F0720E081801E114
:1049D000095033E0E868081802E1E86809182BE09C
:1049E000740E081801E1095024E0750E081801E161
:1049F00009501DE0730E081801E1095016E0030E7E
:104A0000081801E109500FE0020E081801E10950F1
:104A100008E0010E081801E1095001E010D0BBDFE9
:104A20000FD0B8DF0DD0B4DF0BD0B0DF09D0ACDFD2
:104A300007D0ABDF05D0ABDF03D0000001D000D042
:0C4A4000010E00D0E552E7CFD9FF1200B4
:044A4C001201000251
:104A500002000008D80452FD000101020001090211
:104A60004300020100C032090400000102020100FB
:104A70000524001001042402020524060001052477
:104A80000100010705820308000209040100020A6F
:104A900000000007050302400000070583024000F4
:104AA00000040309041A03530069006C00690063E1
:104AB000006F006E0020004300680069007000383D
:104AC00003530069006C00690063006F006E0020F2
:104AD0000043006800690070002000460061006E1D
:104AE00000200043006F006E00740072006F006CC5
:104AF000006C00650072005E4A00A14A00A54A00F1
:034B0000BF4A00A9
:0C4B0400D9CFE6FFDACFE6FFE1CFD9FF02
:104B1000E2CFDAFFE652E652E652E652D950F90FFA
:104B2000146EFF0EDA20156E020E14C0DBFF030EAA
:104B300015C0DBFF020EDBCFE6FF030EDBCFE6FF87
:104B4000F90EDBCFE6FFFA0EDBCFE6FFFB0EDBCF85
:104B5000E6FFD950FC0FE66EFF0EDA20E66ED3ECCE
:104B60001AF0146E070EE15C02E2E16AE552E16EB2
:104B70001450F3CFDEFFF4CFDDFFFC0EDBCFE9FFF7
:104B8000FD0EDBCFEAFFEF6ADECF14F0DDCF15F0CC
:104B900014C0F3FF15C0F4FF040EE15C02E2E16A09
:104BA000E552E16EE552E5CFDAFFE7CFD9FF12001B
:104BB0002A0EF66E100EF76E000EF86E0001090058
:104BC000F550806F0900F550816F03E1806701D0D7
:104BD0003DD00900F5507B6F0900F5507C6F09004E
:104BE000F5507D6F09000900F550E96E0900F55098
:104BF000EA6E090009000900F5507E6F0900F550C2
:104C00007F6F09000900F6CF82F0F7CF83F0F8CF6D
:104C100084F07BC0F6FF7CC0F7FF7DC0F8FF000189
:104C20007E5302E17F5307E00900F550EE6E7E07E8
:104C3000F8E27F07F9D782C0F6FF83C0F7FF84C090
:0E4C4000F8FF00018007000E815BBFD7120055
:024C4E00D9CFBC
:104C5000E6FFDACFE6FFE1CFD9FFE2CFDAFFFB0EC6
:104C6000DBCF14F0FC0EDBCF15F00001800E151425
:104C70001AE1FB0EDBCFE9FFFC0EDBCFEAFFEECF44
:104C8000F3FFEDCFF4FFEE2A000EEF22F3CFE9FFA2
:104C9000F4CFEAFFFD0EDBCFEFFFEF50156AF36EA6
:104CA00015C0F4FF10D0FB0EDB50FE0806E1FD0E30
:104CB000DBCFE6FF89EC27F005D0FD0EDBCFE6FF6A
:104CC000BCEC27F0E552E552E5CFDAFFE7CFD9FF9C
:024CD0001200D0
:0E4CD20006500B02F3CF02F0F4CF03F00C02F9
:104CE000F3500326000EF420046E06500D02F3501C
:104CF0000426000EF420056E06500E02F350052621
:104D000007500B02F3500326F4500422000E052234
:104D100007500C02F3500426F450052207500D02F0
:104D2000F350052608500B02F3500426F4500522D8
:104D300008500C02F350052609500B02F3500526CB
:024D400012005F
:0E4D4200FF0EE124E96EFF0EE220EA6EEDCFD7
:104D5000F4FFEFCFF3FFF46607D0600EF36404D0E6
:104D60007B0EF36001D0F39A1200F36AF46AFF0E2F
:104D7000E124E96EFF0EE220EA6EED6607D02F0E09
:0E4D8000EF6404D03A0EEF6001D0F32A120067
:024D8E00D9CF7B
:104D9000E6FFDACFE6FFE1CFD9FFE2CFDAFFFF0E81
:104DA000E76EFC0EDBCF14F0E75014161450A96E1A
:104DB000FB0EDB50A86EA69EA69CA684F29E550E06
:104DC000A76EAA0EA76EA682F28EA694E552E5CF34
:084DD000DAFFE7CFD9FF120062
:084DD800056A046A036A026A1D
:104DE000200EE76ED89006360736083609360236AA
:104DF0000336043605360B50025C0C5003580D5038
:104E000004580E50055809E30B50025E0C50035A2B
:104E10000D50045A0E50055A062AE72EE4D7120008
:104E2000D9CFE6FFDACFE6FFE1CFD9FFE2CFDAFF55
:104E3000FF0EE76EFC0EDBCF14F0E7501416145093
:104E4000A96EA69CA69EA680A850E552E5CFDAFFE3
:064E5000E7CFD9FF1200BC
:0A4E5600FF0EE350296EEF0E01D0AD
:104E6000F30EE76EE72E32EF27F00C0E286EE76A9E
:104E7000E72E38EF27F0282E37EF27F0292E30EFD6
:044E800027F0120005
:0C4E8400056A046A100EE76ED89008362C
:104E90000936043605360D50045C0E50055805E3FE
:104EA0000D50045E0E50055A082AE72EF0D7120066
:104EB000200D0A4552523A2025730D0A0020464320
:104EC000410D0A0020464352000D0A002C25306493
:064ED000002046434400EF
:0A4ED600000EF36E00EE00F0040E73
:104EE00001D81200EA6002D0EE6AFCD7F350E96004
:064EF0001200EE6AFCD77F
:0A4EF60013EE00F023EE00F0F86A5E
:104F0000019CD8EC25F0BDEC27F02FEC09F0FBD785
:024F100012008D
:0E4F1200FF0EE350ACBA04D0AF6AAB8EAC8A8F
:0E4F2000949CACA2FED7AD6EF36EF46A120044
:024F2E00056A12
:104F3000080EE76ED890093605360E50055C02E380
:0A4F4000056E092AE72EF7D71200CC
:064F4A00FF0EE350E84EEB
:104F50001200000000D000D000D0E82EFAD71200D6
:104F600030313233343536373839616263646566DF
:014F70000040
:064F7200A6B2FED71200FA
:024F7800120025
:024F7A00120023
:034F7C00C4090065
:020000040030CA
:0100000024DB
:010001000EF0
:010002003FBE
:010003001EDE
:0100050001F9
:010006008178
:010008000FE8
:01000900C036
:01000A000FE6
:01000B00E014
:01000C000FE4
:01000D0040B2
:0200000400F00A
:100000000100000019001E3200010019001E32001C
:10001000010019001E3200010019001E320001000B
:00000001FF
